:1000000000E204B9E6E6F0E001D0FACF44914E32C6
:1000100021F0415404D03196F9CF88270895EF9309
:10002000FF93EDE6F0E0E40F08F4F39524917A965F
:1000300034912D9A30FF10D011D036952A9531D0B9
:100040002D9881E02ED08827222309F0F2CF86E078
:1000500028D0FF91EF91089581E00895882309F059
:10006000089583E0089548454C4C4F2E0002040447
:10007000030104030402040304020203040403034F
:100080000103040304040402010501000403000049
:100090000E0502030107060B020001040806090D04
:1000A00003008F931F932F921F9218E01124222494
:1000B0002A94F1F71A94D9F71A95C1F78A95A9F7F6
:0A00C0001F902F901F918F9108955B
:00000001FF
