:100000001CC0000000000000000000000000000014
:1000100000000000000000000000000000000000E0
:1000200000000000000000000C944A000C943B000B
:10003000000000000C941C00189508E00EBF0FEFA4
:100040000DBF00E00093C1000C942600EEEFEAB96A
:10005000289A00270093800003E200936F0002E1DA
:100060000093890000E0009388000DE80093810070
:1000700033277894FFCF0F930FB70F930091810030
:1000800006FF02C03FEF02C02CD0EBB90F910FBFAB
:100090000F9118958F928FB68F92809086008090E6
:1000A00087001F93132F182979F0112710938500CB
:1000B000109384001091810016FF03C00AD01F7BAB
:1000C00001C01064109381001F918F908FBE8F909C
:1000D00018950F93332321F406E0801600F065C0D5
:1000E00066C0D13041F0D23071F0D330D1F0D4308D
:1000F00091F159C055C0E7E0C03021F0E9EBC130C3
:1001000009F051C04DC0E9EFC03051F0E9E0C23014
:1001100039F0EBEAC13021F0EBE6C33009F043C01F
:100120003FC0E1EAC130B1F0E1E1C33099F0E7E866
:10013000C53081F0E1E4C73069F0EFEAC23051F038
:10014000E3E1C03039F0E1ECC43021F0E5EDC63038
:1001500009F029C025C0E3E8C13011F1E7E4C5305A
:10016000F9F0EFE0C430E1F0E9E8C030C9F0E1EEC9
:10017000CE30B1F0E7ECC23099F0EDE0C63081F05E
:10018000E9E1CB3069F0E3EEC83051F0E7E3C93084
:1001900039F0E1E9CD3021F0E5E2C33009F003C0E8
:1001A000DD27CC270895EFEBFBCFD39512C0D39575
:1001B000D13039F0D23039F0D33039F0D43039F091
:1001C00008C0C16006C0C26004C0C46002C0C8608C
:0801D00000C00F9133270895D0
:00000001FF
